{
  "contractName": "BakiNFT",
  "abi": [
    {
      "inputs": [
        {
          "internalType": "string",
          "name": "name",
          "type": "string"
        },
        {
          "internalType": "string",
          "name": "symbol",
          "type": "string"
        },
        {
          "internalType": "uint256",
          "name": "totalSupply",
          "type": "uint256"
        },
        {
          "internalType": "uint256",
          "name": "whitelistPrice",
          "type": "uint256"
        },
        {
          "internalType": "uint256",
          "name": "publicPrice",
          "type": "uint256"
        },
        {
          "internalType": "bytes32",
          "name": "merkleRoot",
          "type": "bytes32"
        },
        {
          "internalType": "string",
          "name": "baseURI",
          "type": "string"
        },
        {
          "internalType": "uint256",
          "name": "maxMint",
          "type": "uint256"
        }
      ],
      "stateMutability": "nonpayable",
      "type": "constructor"
    },
    {
      "anonymous": false,
      "inputs": [
        {
          "indexed": true,
          "internalType": "address",
          "name": "owner",
          "type": "address"
        },
        {
          "indexed": true,
          "internalType": "address",
          "name": "approved",
          "type": "address"
        },
        {
          "indexed": true,
          "internalType": "uint256",
          "name": "tokenId",
          "type": "uint256"
        }
      ],
      "name": "Approval",
      "type": "event"
    },
    {
      "anonymous": false,
      "inputs": [
        {
          "indexed": true,
          "internalType": "address",
          "name": "owner",
          "type": "address"
        },
        {
          "indexed": true,
          "internalType": "address",
          "name": "operator",
          "type": "address"
        },
        {
          "indexed": false,
          "internalType": "bool",
          "name": "approved",
          "type": "bool"
        }
      ],
      "name": "ApprovalForAll",
      "type": "event"
    },
    {
      "anonymous": false,
      "inputs": [
        {
          "indexed": true,
          "internalType": "address",
          "name": "previousOwner",
          "type": "address"
        },
        {
          "indexed": true,
          "internalType": "address",
          "name": "newOwner",
          "type": "address"
        }
      ],
      "name": "OwnershipTransferred",
      "type": "event"
    },
    {
      "anonymous": false,
      "inputs": [
        {
          "indexed": true,
          "internalType": "address",
          "name": "from",
          "type": "address"
        },
        {
          "indexed": true,
          "internalType": "address",
          "name": "to",
          "type": "address"
        },
        {
          "indexed": true,
          "internalType": "uint256",
          "name": "tokenId",
          "type": "uint256"
        }
      ],
      "name": "Transfer",
      "type": "event"
    },
    {
      "inputs": [],
      "name": "_baseTokenURI",
      "outputs": [
        {
          "internalType": "string",
          "name": "",
          "type": "string"
        }
      ],
      "stateMutability": "view",
      "type": "function"
    },
    {
      "inputs": [],
      "name": "_enabled",
      "outputs": [
        {
          "internalType": "bool",
          "name": "",
          "type": "bool"
        }
      ],
      "stateMutability": "view",
      "type": "function"
    },
    {
      "inputs": [],
      "name": "_maxMint",
      "outputs": [
        {
          "internalType": "uint256",
          "name": "",
          "type": "uint256"
        }
      ],
      "stateMutability": "view",
      "type": "function"
    },
    {
      "inputs": [],
      "name": "_merkleRoot",
      "outputs": [
        {
          "internalType": "bytes32",
          "name": "",
          "type": "bytes32"
        }
      ],
      "stateMutability": "view",
      "type": "function"
    },
    {
      "inputs": [],
      "name": "_publicPrice",
      "outputs": [
        {
          "internalType": "uint256",
          "name": "",
          "type": "uint256"
        }
      ],
      "stateMutability": "view",
      "type": "function"
    },
    {
      "inputs": [],
      "name": "_totalSupply",
      "outputs": [
        {
          "internalType": "uint256",
          "name": "",
          "type": "uint256"
        }
      ],
      "stateMutability": "view",
      "type": "function"
    },
    {
      "inputs": [],
      "name": "_whitelistPrice",
      "outputs": [
        {
          "internalType": "uint256",
          "name": "",
          "type": "uint256"
        }
      ],
      "stateMutability": "view",
      "type": "function"
    },
    {
      "inputs": [
        {
          "internalType": "address",
          "name": "to",
          "type": "address"
        },
        {
          "internalType": "uint256",
          "name": "tokenId",
          "type": "uint256"
        }
      ],
      "name": "approve",
      "outputs": [],
      "stateMutability": "nonpayable",
      "type": "function"
    },
    {
      "inputs": [
        {
          "internalType": "address",
          "name": "owner",
          "type": "address"
        }
      ],
      "name": "balanceOf",
      "outputs": [
        {
          "internalType": "uint256",
          "name": "",
          "type": "uint256"
        }
      ],
      "stateMutability": "view",
      "type": "function"
    },
    {
      "inputs": [
        {
          "internalType": "uint256",
          "name": "tokenId",
          "type": "uint256"
        }
      ],
      "name": "getApproved",
      "outputs": [
        {
          "internalType": "address",
          "name": "",
          "type": "address"
        }
      ],
      "stateMutability": "view",
      "type": "function"
    },
    {
      "inputs": [
        {
          "internalType": "address",
          "name": "owner",
          "type": "address"
        },
        {
          "internalType": "address",
          "name": "operator",
          "type": "address"
        }
      ],
      "name": "isApprovedForAll",
      "outputs": [
        {
          "internalType": "bool",
          "name": "",
          "type": "bool"
        }
      ],
      "stateMutability": "view",
      "type": "function"
    },
    {
      "inputs": [],
      "name": "name",
      "outputs": [
        {
          "internalType": "string",
          "name": "",
          "type": "string"
        }
      ],
      "stateMutability": "view",
      "type": "function"
    },
    {
      "inputs": [],
      "name": "owner",
      "outputs": [
        {
          "internalType": "address",
          "name": "",
          "type": "address"
        }
      ],
      "stateMutability": "view",
      "type": "function"
    },
    {
      "inputs": [
        {
          "internalType": "uint256",
          "name": "tokenId",
          "type": "uint256"
        }
      ],
      "name": "ownerOf",
      "outputs": [
        {
          "internalType": "address",
          "name": "",
          "type": "address"
        }
      ],
      "stateMutability": "view",
      "type": "function"
    },
    {
      "inputs": [],
      "name": "renounceOwnership",
      "outputs": [],
      "stateMutability": "nonpayable",
      "type": "function"
    },
    {
      "inputs": [
        {
          "internalType": "address",
          "name": "from",
          "type": "address"
        },
        {
          "internalType": "address",
          "name": "to",
          "type": "address"
        },
        {
          "internalType": "uint256",
          "name": "tokenId",
          "type": "uint256"
        }
      ],
      "name": "safeTransferFrom",
      "outputs": [],
      "stateMutability": "nonpayable",
      "type": "function"
    },
    {
      "inputs": [
        {
          "internalType": "address",
          "name": "from",
          "type": "address"
        },
        {
          "internalType": "address",
          "name": "to",
          "type": "address"
        },
        {
          "internalType": "uint256",
          "name": "tokenId",
          "type": "uint256"
        },
        {
          "internalType": "bytes",
          "name": "_data",
          "type": "bytes"
        }
      ],
      "name": "safeTransferFrom",
      "outputs": [],
      "stateMutability": "nonpayable",
      "type": "function"
    },
    {
      "inputs": [
        {
          "internalType": "address",
          "name": "operator",
          "type": "address"
        },
        {
          "internalType": "bool",
          "name": "approved",
          "type": "bool"
        }
      ],
      "name": "setApprovalForAll",
      "outputs": [],
      "stateMutability": "nonpayable",
      "type": "function"
    },
    {
      "inputs": [
        {
          "internalType": "bytes4",
          "name": "interfaceId",
          "type": "bytes4"
        }
      ],
      "name": "supportsInterface",
      "outputs": [
        {
          "internalType": "bool",
          "name": "",
          "type": "bool"
        }
      ],
      "stateMutability": "view",
      "type": "function"
    },
    {
      "inputs": [],
      "name": "symbol",
      "outputs": [
        {
          "internalType": "string",
          "name": "",
          "type": "string"
        }
      ],
      "stateMutability": "view",
      "type": "function"
    },
    {
      "inputs": [
        {
          "internalType": "uint256",
          "name": "tokenId",
          "type": "uint256"
        }
      ],
      "name": "tokenURI",
      "outputs": [
        {
          "internalType": "string",
          "name": "",
          "type": "string"
        }
      ],
      "stateMutability": "view",
      "type": "function"
    },
    {
      "inputs": [
        {
          "internalType": "address",
          "name": "from",
          "type": "address"
        },
        {
          "internalType": "address",
          "name": "to",
          "type": "address"
        },
        {
          "internalType": "uint256",
          "name": "tokenId",
          "type": "uint256"
        }
      ],
      "name": "transferFrom",
      "outputs": [],
      "stateMutability": "nonpayable",
      "type": "function"
    },
    {
      "inputs": [
        {
          "internalType": "address",
          "name": "newOwner",
          "type": "address"
        }
      ],
      "name": "transferOwnership",
      "outputs": [],
      "stateMutability": "nonpayable",
      "type": "function"
    },
    {
      "inputs": [
        {
          "internalType": "uint256",
          "name": "amount",
          "type": "uint256"
        }
      ],
      "name": "publicMint",
      "outputs": [],
      "stateMutability": "payable",
      "type": "function"
    },
    {
      "inputs": [
        {
          "internalType": "uint256",
          "name": "amount",
          "type": "uint256"
        },
        {
          "internalType": "bytes32[]",
          "name": "merkleProof",
          "type": "bytes32[]"
        }
      ],
      "name": "whitelistMint",
      "outputs": [],
      "stateMutability": "payable",
      "type": "function"
    },
    {
      "inputs": [
        {
          "internalType": "uint256",
          "name": "whitelistPrice",
          "type": "uint256"
        }
      ],
      "name": "setWhitelistPrice",
      "outputs": [],
      "stateMutability": "nonpayable",
      "type": "function"
    },
    {
      "inputs": [
        {
          "internalType": "uint256",
          "name": "publicPrice",
          "type": "uint256"
        }
      ],
      "name": "setPublicPrice",
      "outputs": [],
      "stateMutability": "nonpayable",
      "type": "function"
    },
    {
      "inputs": [
        {
          "internalType": "uint256",
          "name": "totalSupply",
          "type": "uint256"
        }
      ],
      "name": "setTotalSupply",
      "outputs": [],
      "stateMutability": "nonpayable",
      "type": "function"
    },
    {
      "inputs": [
        {
          "internalType": "bool",
          "name": "status",
          "type": "bool"
        }
      ],
      "name": "setEnabled",
      "outputs": [],
      "stateMutability": "nonpayable",
      "type": "function"
    },
    {
      "inputs": [],
      "name": "withdraw",
      "outputs": [],
      "stateMutability": "nonpayable",
      "type": "function"
    },
    {
      "inputs": [
        {
          "internalType": "bytes32",
          "name": "merkleRoot",
          "type": "bytes32"
        }
      ],
      "name": "setMerkleRoot",
      "outputs": [],
      "stateMutability": "nonpayable",
      "type": "function"
    },
    {
      "inputs": [],
      "name": "fetchCurrentSupply",
      "outputs": [
        {
          "internalType": "uint256",
          "name": "",
          "type": "uint256"
        }
      ],
      "stateMutability": "view",
      "type": "function"
    },
    {
      "inputs": [
        {
          "internalType": "string",
          "name": "baseURI",
          "type": "string"
        }
      ],
      "name": "setBaseURI",
      "outputs": [],
      "stateMutability": "nonpayable",
      "type": "function"
    },
    {
      "inputs": [
        {
          "internalType": "uint256",
          "name": "maxMint",
          "type": "uint256"
        }
      ],
      "name": "setMaxMint",
      "outputs": [],
      "stateMutability": "nonpayable",
      "type": "function"
    }
  ],
  "bytecode": "0x60806040523480156200001157600080fd5b50604051620048a8380380620048a88339818101604052810190620000379190620004c4565b878781600090805190602001906200005192919062000201565b5080600190805190602001906200006a92919062000201565b5050506200008d620000816200013360201b60201c565b6200013b60201b60201c565b33600860006101000a81548173ffffffffffffffffffffffffffffffffffffffff021916908373ffffffffffffffffffffffffffffffffffffffff16021790555085600c8190555084600a8190555083600b8190555082600e8190555081601090805190602001906200010292919062000201565b5080600f819055506001600d60006101000a81548160ff02191690831515021790555050505050505050506200064f565b600033905090565b6000600760009054906101000a900473ffffffffffffffffffffffffffffffffffffffff16905081600760006101000a81548173ffffffffffffffffffffffffffffffffffffffff021916908373ffffffffffffffffffffffffffffffffffffffff1602179055508173ffffffffffffffffffffffffffffffffffffffff168173ffffffffffffffffffffffffffffffffffffffff167f8be0079c531659141344cd1fd0a4f28419497f9722a3daafe3b4186f6b6457e060405160405180910390a35050565b8280546200020f9062000619565b90600052602060002090601f0160209004810192826200023357600085556200027f565b82601f106200024e57805160ff19168380011785556200027f565b828001600101855582156200027f579182015b828111156200027e57825182559160200191906001019062000261565b5b5090506200028e919062000292565b5090565b5b80821115620002ad57600081600090555060010162000293565b5090565b6000604051905090565b600080fd5b600080fd5b600080fd5b600080fd5b6000601f19601f8301169050919050565b7f4e487b7100000000000000000000000000000000000000000000000000000000600052604160045260246000fd5b6200031a82620002cf565b810181811067ffffffffffffffff821117156200033c576200033b620002e0565b5b80604052505050565b600062000351620002b1565b90506200035f82826200030f565b919050565b600067ffffffffffffffff821115620003825762000381620002e0565b5b6200038d82620002cf565b9050602081019050919050565b60005b83811015620003ba5780820151818401526020810190506200039d565b83811115620003ca576000848401525b50505050565b6000620003e7620003e18462000364565b62000345565b905082815260208101848484011115620004065762000405620002ca565b5b620004138482856200039a565b509392505050565b600082601f830112620004335762000432620002c5565b5b815162000445848260208601620003d0565b91505092915050565b6000819050919050565b62000463816200044e565b81146200046f57600080fd5b50565b600081519050620004838162000458565b92915050565b6000819050919050565b6200049e8162000489565b8114620004aa57600080fd5b50565b600081519050620004be8162000493565b92915050565b600080600080600080600080610100898b031215620004e857620004e7620002bb565b5b600089015167ffffffffffffffff811115620005095762000508620002c0565b5b620005178b828c016200041b565b985050602089015167ffffffffffffffff8111156200053b576200053a620002c0565b5b620005498b828c016200041b565b97505060406200055c8b828c0162000472565b96505060606200056f8b828c0162000472565b9550506080620005828b828c0162000472565b94505060a0620005958b828c01620004ad565b93505060c089015167ffffffffffffffff811115620005b957620005b8620002c0565b5b620005c78b828c016200041b565b92505060e0620005da8b828c0162000472565b9150509295985092959890939650565b7f4e487b7100000000000000000000000000000000000000000000000000000000600052602260045260246000fd5b600060028204905060018216806200063257607f821691505b60208210811415620006495762000648620005ea565b5b50919050565b614249806200065f6000396000f3fe6080604052600436106101f95760003560e01c8063717d57d31161010d578063c36be496116100a0578063d2cab0561161006f578063d2cab056146106ea578063e985e9c514610706578063ee88fb0f14610743578063f2fde38b1461076e578063f7ea7a3d14610797576101f9565b8063c36be4961461062e578063c627525514610659578063c87b56dd14610682578063cfc86f7b146106bf576101f9565b806398889058116100dc5780639888905814610586578063a22cb465146105b1578063b640392c146105da578063b88d4fde14610605576101f9565b8063717d57d3146104de5780637cb64759146105075780638da5cb5b1461053057806395d89b411461055b576101f9565b80633ccfd60b1161019057806355f804b31161015f57806355f804b3146103f95780636352211e146104225780636f467c7d1461045f57806370a082311461048a578063715018a6146104c7576101f9565b80633ccfd60b146103655780633eaaf86b1461037c57806342842e0e146103a7578063547520fe146103d0576101f9565b806323b872dd116101cc57806323b872dd146102cc5780632db11544146102f55780632fc37ab214610311578063328d8f721461033c576101f9565b806301ffc9a7146101fe57806306fdde031461023b578063081812fc14610266578063095ea7b3146102a3575b600080fd5b34801561020a57600080fd5b50610225600480360381019061022091906129fc565b6107c0565b6040516102329190612a44565b60405180910390f35b34801561024757600080fd5b506102506108a2565b60405161025d9190612af8565b60405180910390f35b34801561027257600080fd5b5061028d60048036038101906102889190612b50565b610934565b60405161029a9190612bbe565b60405180910390f35b3480156102af57600080fd5b506102ca60048036038101906102c59190612c05565b6109b9565b005b3480156102d857600080fd5b506102f360048036038101906102ee9190612c45565b610ad1565b005b61030f600480360381019061030a9190612b50565b610b31565b005b34801561031d57600080fd5b50610326610bdb565b6040516103339190612cb1565b60405180910390f35b34801561034857600080fd5b50610363600480360381019061035e9190612cf8565b610be1565b005b34801561037157600080fd5b5061037a610c7a565b005b34801561038857600080fd5b50610391610dac565b60405161039e9190612d34565b60405180910390f35b3480156103b357600080fd5b506103ce60048036038101906103c99190612c45565b610db2565b005b3480156103dc57600080fd5b506103f760048036038101906103f29190612b50565b610dd2565b005b34801561040557600080fd5b50610420600480360381019061041b9190612db4565b610e58565b005b34801561042e57600080fd5b5061044960048036038101906104449190612b50565b610eea565b6040516104569190612bbe565b60405180910390f35b34801561046b57600080fd5b50610474610f9c565b6040516104819190612d34565b60405180910390f35b34801561049657600080fd5b506104b160048036038101906104ac9190612e01565b610fad565b6040516104be9190612d34565b60405180910390f35b3480156104d357600080fd5b506104dc611065565b005b3480156104ea57600080fd5b5061050560048036038101906105009190612b50565b6110ed565b005b34801561051357600080fd5b5061052e60048036038101906105299190612e5a565b611173565b005b34801561053c57600080fd5b506105456111f9565b6040516105529190612bbe565b60405180910390f35b34801561056757600080fd5b50610570611223565b60405161057d9190612af8565b60405180910390f35b34801561059257600080fd5b5061059b6112b5565b6040516105a89190612d34565b60405180910390f35b3480156105bd57600080fd5b506105d860048036038101906105d39190612e87565b6112bb565b005b3480156105e657600080fd5b506105ef6112d1565b6040516105fc9190612d34565b60405180910390f35b34801561061157600080fd5b5061062c60048036038101906106279190612ff7565b6112d7565b005b34801561063a57600080fd5b50610643611339565b6040516106509190612a44565b60405180910390f35b34801561066557600080fd5b50610680600480360381019061067b9190612b50565b61134c565b005b34801561068e57600080fd5b506106a960048036038101906106a49190612b50565b6113d2565b6040516106b69190612af8565b60405180910390f35b3480156106cb57600080fd5b506106d4611524565b6040516106e19190612af8565b60405180910390f35b61070460048036038101906106ff91906130d0565b6115b2565b005b34801561071257600080fd5b5061072d60048036038101906107289190613130565b611717565b60405161073a9190612a44565b60405180910390f35b34801561074f57600080fd5b506107586117ab565b6040516107659190612d34565b60405180910390f35b34801561077a57600080fd5b5061079560048036038101906107909190612e01565b6117b1565b005b3480156107a357600080fd5b506107be60048036038101906107b99190612b50565b6118a9565b005b60007f80ac58cd000000000000000000000000000000000000000000000000000000007bffffffffffffffffffffffffffffffffffffffffffffffffffffffff1916827bffffffffffffffffffffffffffffffffffffffffffffffffffffffff1916148061088b57507f5b5e139f000000000000000000000000000000000000000000000000000000007bffffffffffffffffffffffffffffffffffffffffffffffffffffffff1916827bffffffffffffffffffffffffffffffffffffffffffffffffffffffff1916145b8061089b575061089a8261192f565b5b9050919050565b6060600080546108b19061319f565b80601f01602080910402602001604051908101604052809291908181526020018280546108dd9061319f565b801561092a5780601f106108ff5761010080835404028352916020019161092a565b820191906000526020600020905b81548152906001019060200180831161090d57829003601f168201915b5050505050905090565b600061093f82611999565b61097e576040517f08c379a000000000000000000000000000000000000000000000000000000000815260040161097590613243565b60405180910390fd5b6004600083815260200190815260200160002060009054906101000a900473ffffffffffffffffffffffffffffffffffffffff169050919050565b60006109c482610eea565b90508073ffffffffffffffffffffffffffffffffffffffff168373ffffffffffffffffffffffffffffffffffffffff161415610a35576040517f08c379a0000000000000000000000000000000000000000000000000000000008152600401610a2c906132d5565b60405180910390fd5b8073ffffffffffffffffffffffffffffffffffffffff16610a54611a05565b73ffffffffffffffffffffffffffffffffffffffff161480610a835750610a8281610a7d611a05565b611717565b5b610ac2576040517f08c379a0000000000000000000000000000000000000000000000000000000008152600401610ab990613367565b60405180910390fd5b610acc8383611a0d565b505050565b610ae2610adc611a05565b82611ac6565b610b21576040517f08c379a0000000000000000000000000000000000000000000000000000000008152600401610b18906133f9565b60405180910390fd5b610b2c838383611ba4565b505050565b600d60009054906101000a900460ff16610b80576040517f08c379a0000000000000000000000000000000000000000000000000000000008152600401610b7790613465565b60405180910390fd5b3481600b54610b8f91906134b4565b14610bcf576040517f08c379a0000000000000000000000000000000000000000000000000000000008152600401610bc690613580565b60405180910390fd5b610bd881611e0b565b50565b600e5481565b610be9611a05565b73ffffffffffffffffffffffffffffffffffffffff16610c076111f9565b73ffffffffffffffffffffffffffffffffffffffff1614610c5d576040517f08c379a0000000000000000000000000000000000000000000000000000000008152600401610c54906135ec565b60405180910390fd5b80600d60006101000a81548160ff02191690831515021790555050565b610c82611a05565b73ffffffffffffffffffffffffffffffffffffffff16610ca06111f9565b73ffffffffffffffffffffffffffffffffffffffff1614610cf6576040517f08c379a0000000000000000000000000000000000000000000000000000000008152600401610ced906135ec565b60405180910390fd5b6000610d006111f9565b73ffffffffffffffffffffffffffffffffffffffff1647604051610d239061363d565b60006040518083038185875af1925050503d8060008114610d60576040519150601f19603f3d011682016040523d82523d6000602084013e610d65565b606091505b5050905080610da9576040517f08c379a0000000000000000000000000000000000000000000000000000000008152600401610da09061369e565b60405180910390fd5b50565b600c5481565b610dcd838383604051806020016040528060008152506112d7565b505050565b610dda611a05565b73ffffffffffffffffffffffffffffffffffffffff16610df86111f9565b73ffffffffffffffffffffffffffffffffffffffff1614610e4e576040517f08c379a0000000000000000000000000000000000000000000000000000000008152600401610e45906135ec565b60405180910390fd5b80600f8190555050565b610e60611a05565b73ffffffffffffffffffffffffffffffffffffffff16610e7e6111f9565b73ffffffffffffffffffffffffffffffffffffffff1614610ed4576040517f08c379a0000000000000000000000000000000000000000000000000000000008152600401610ecb906135ec565b60405180910390fd5b818160109190610ee59291906128ed565b505050565b6000806002600084815260200190815260200160002060009054906101000a900473ffffffffffffffffffffffffffffffffffffffff169050600073ffffffffffffffffffffffffffffffffffffffff168173ffffffffffffffffffffffffffffffffffffffff161415610f93576040517f08c379a0000000000000000000000000000000000000000000000000000000008152600401610f8a90613730565b60405180910390fd5b80915050919050565b6000610fa86009611ef5565b905090565b60008073ffffffffffffffffffffffffffffffffffffffff168273ffffffffffffffffffffffffffffffffffffffff16141561101e576040517f08c379a0000000000000000000000000000000000000000000000000000000008152600401611015906137c2565b60405180910390fd5b600360008373ffffffffffffffffffffffffffffffffffffffff1673ffffffffffffffffffffffffffffffffffffffff168152602001908152602001600020549050919050565b61106d611a05565b73ffffffffffffffffffffffffffffffffffffffff1661108b6111f9565b73ffffffffffffffffffffffffffffffffffffffff16146110e1576040517f08c379a00000000000000000000000000000000000000000000000000000000081526004016110d8906135ec565b60405180910390fd5b6110eb6000611f03565b565b6110f5611a05565b73ffffffffffffffffffffffffffffffffffffffff166111136111f9565b73ffffffffffffffffffffffffffffffffffffffff1614611169576040517f08c379a0000000000000000000000000000000000000000000000000000000008152600401611160906135ec565b60405180910390fd5b80600a8190555050565b61117b611a05565b73ffffffffffffffffffffffffffffffffffffffff166111996111f9565b73ffffffffffffffffffffffffffffffffffffffff16146111ef576040517f08c379a00000000000000000000000000000000000000000000000000000000081526004016111e6906135ec565b60405180910390fd5b80600e8190555050565b6000600760009054906101000a900473ffffffffffffffffffffffffffffffffffffffff16905090565b6060600180546112329061319f565b80601f016020809104026020016040519081016040528092919081815260200182805461125e9061319f565b80156112ab5780601f10611280576101008083540402835291602001916112ab565b820191906000526020600020905b81548152906001019060200180831161128e57829003601f168201915b5050505050905090565b600b5481565b6112cd6112c6611a05565b8383611fc9565b5050565b600f5481565b6112e86112e2611a05565b83611ac6565b611327576040517f08c379a000000000000000000000000000000000000000000000000000000000815260040161131e906133f9565b60405180910390fd5b61133384848484612136565b50505050565b600d60009054906101000a900460ff1681565b611354611a05565b73ffffffffffffffffffffffffffffffffffffffff166113726111f9565b73ffffffffffffffffffffffffffffffffffffffff16146113c8576040517f08c379a00000000000000000000000000000000000000000000000000000000081526004016113bf906135ec565b60405180910390fd5b80600b8190555050565b60606113dd82611999565b61141c576040517f08c379a000000000000000000000000000000000000000000000000000000000815260040161141390613854565b60405180910390fd5b600060066000848152602001908152602001600020805461143c9061319f565b80601f01602080910402602001604051908101604052809291908181526020018280546114689061319f565b80156114b55780601f1061148a576101008083540402835291602001916114b5565b820191906000526020600020905b81548152906001019060200180831161149857829003601f168201915b5050505050905060006114c6612192565b90506000815114156114dc57819250505061151f565b6000825111156115115780826040516020016114f99291906138b0565b6040516020818303038152906040529250505061151f565b61151a84612224565b925050505b919050565b601080546115319061319f565b80601f016020809104026020016040519081016040528092919081815260200182805461155d9061319f565b80156115aa5780601f1061157f576101008083540402835291602001916115aa565b820191906000526020600020905b81548152906001019060200180831161158d57829003601f168201915b505050505081565b8181600e54611629838380806020026020016040519081016040528093929190818152602001838360200280828437600081840152601f19601f82011690508083019250505050505050823360405160200161160e919061391c565b604051602081830303815290604052805190602001206122cb565b611668576040517f08c379a000000000000000000000000000000000000000000000000000000000815260040161165f906139a9565b60405180910390fd5b600d60009054906101000a900460ff166116b7576040517f08c379a00000000000000000000000000000000000000000000000000000000081526004016116ae90613465565b60405180910390fd5b3486600a546116c691906134b4565b14611706576040517f08c379a00000000000000000000000000000000000000000000000000000000081526004016116fd90613580565b60405180910390fd5b61170f86611e0b565b505050505050565b6000600560008473ffffffffffffffffffffffffffffffffffffffff1673ffffffffffffffffffffffffffffffffffffffff16815260200190815260200160002060008373ffffffffffffffffffffffffffffffffffffffff1673ffffffffffffffffffffffffffffffffffffffff16815260200190815260200160002060009054906101000a900460ff16905092915050565b600a5481565b6117b9611a05565b73ffffffffffffffffffffffffffffffffffffffff166117d76111f9565b73ffffffffffffffffffffffffffffffffffffffff161461182d576040517f08c379a0000000000000000000000000000000000000000000000000000000008152600401611824906135ec565b60405180910390fd5b600073ffffffffffffffffffffffffffffffffffffffff168173ffffffffffffffffffffffffffffffffffffffff16141561189d576040517f08c379a000000000000000000000000000000000000000000000000000000000815260040161189490613a3b565b60405180910390fd5b6118a681611f03565b50565b6118b1611a05565b73ffffffffffffffffffffffffffffffffffffffff166118cf6111f9565b73ffffffffffffffffffffffffffffffffffffffff1614611925576040517f08c379a000000000000000000000000000000000000000000000000000000000815260040161191c906135ec565b60405180910390fd5b80600c8190555050565b60007f01ffc9a7000000000000000000000000000000000000000000000000000000007bffffffffffffffffffffffffffffffffffffffffffffffffffffffff1916827bffffffffffffffffffffffffffffffffffffffffffffffffffffffff1916149050919050565b60008073ffffffffffffffffffffffffffffffffffffffff166002600084815260200190815260200160002060009054906101000a900473ffffffffffffffffffffffffffffffffffffffff1673ffffffffffffffffffffffffffffffffffffffff1614159050919050565b600033905090565b816004600083815260200190815260200160002060006101000a81548173ffffffffffffffffffffffffffffffffffffffff021916908373ffffffffffffffffffffffffffffffffffffffff160217905550808273ffffffffffffffffffffffffffffffffffffffff16611a8083610eea565b73ffffffffffffffffffffffffffffffffffffffff167f8c5be1e5ebec7d5bd14f71427d1e84f3dd0314c0f7b2291e5b200ac8c7c3b92560405160405180910390a45050565b6000611ad182611999565b611b10576040517f08c379a0000000000000000000000000000000000000000000000000000000008152600401611b0790613acd565b60405180910390fd5b6000611b1b83610eea565b90508073ffffffffffffffffffffffffffffffffffffffff168473ffffffffffffffffffffffffffffffffffffffff161480611b5d5750611b5c8185611717565b5b80611b9b57508373ffffffffffffffffffffffffffffffffffffffff16611b8384610934565b73ffffffffffffffffffffffffffffffffffffffff16145b91505092915050565b8273ffffffffffffffffffffffffffffffffffffffff16611bc482610eea565b73ffffffffffffffffffffffffffffffffffffffff1614611c1a576040517f08c379a0000000000000000000000000000000000000000000000000000000008152600401611c1190613b5f565b60405180910390fd5b600073ffffffffffffffffffffffffffffffffffffffff168273ffffffffffffffffffffffffffffffffffffffff161415611c8a576040517f08c379a0000000000000000000000000000000000000000000000000000000008152600401611c8190613bf1565b60405180910390fd5b611c958383836122e2565b611ca0600082611a0d565b6001600360008573ffffffffffffffffffffffffffffffffffffffff1673ffffffffffffffffffffffffffffffffffffffff1681526020019081526020016000206000828254611cf09190613c11565b925050819055506001600360008473ffffffffffffffffffffffffffffffffffffffff1673ffffffffffffffffffffffffffffffffffffffff1681526020019081526020016000206000828254611d479190613c45565b92505081905550816002600083815260200190815260200160002060006101000a81548173ffffffffffffffffffffffffffffffffffffffff021916908373ffffffffffffffffffffffffffffffffffffffff160217905550808273ffffffffffffffffffffffffffffffffffffffff168473ffffffffffffffffffffffffffffffffffffffff167fddf252ad1be2c89b69c2b068fc378daa952ba7f163c4a11628f55a4df523b3ef60405160405180910390a4611e068383836122e7565b505050565b600f5481611e1833610fad565b611e229190613c45565b1115611e63576040517f08c379a0000000000000000000000000000000000000000000000000000000008152600401611e5a90613d0d565b60405180910390fd5b60005b81811015611ef1578080611e7990613d2d565b915050600c54611e896009611ef5565b10611ec9576040517f08c379a0000000000000000000000000000000000000000000000000000000008152600401611ec090613de8565b60405180910390fd5b6000611ed56009611ef5565b9050611ee133826122ec565b611eeb600961230a565b50611e66565b5050565b600081600001549050919050565b6000600760009054906101000a900473ffffffffffffffffffffffffffffffffffffffff16905081600760006101000a81548173ffffffffffffffffffffffffffffffffffffffff021916908373ffffffffffffffffffffffffffffffffffffffff1602179055508173ffffffffffffffffffffffffffffffffffffffff168173ffffffffffffffffffffffffffffffffffffffff167f8be0079c531659141344cd1fd0a4f28419497f9722a3daafe3b4186f6b6457e060405160405180910390a35050565b8173ffffffffffffffffffffffffffffffffffffffff168373ffffffffffffffffffffffffffffffffffffffff161415612038576040517f08c379a000000000000000000000000000000000000000000000000000000000815260040161202f90613e54565b60405180910390fd5b80600560008573ffffffffffffffffffffffffffffffffffffffff1673ffffffffffffffffffffffffffffffffffffffff16815260200190815260200160002060008473ffffffffffffffffffffffffffffffffffffffff1673ffffffffffffffffffffffffffffffffffffffff16815260200190815260200160002060006101000a81548160ff0219169083151502179055508173ffffffffffffffffffffffffffffffffffffffff168373ffffffffffffffffffffffffffffffffffffffff167f17307eab39ab6107e8899845ad3d59bd9653f200f220920489ca2b5937696c31836040516121299190612a44565b60405180910390a3505050565b612141848484611ba4565b61214d84848484612320565b61218c576040517f08c379a000000000000000000000000000000000000000000000000000000000815260040161218390613ee6565b60405180910390fd5b50505050565b6060601080546121a19061319f565b80601f01602080910402602001604051908101604052809291908181526020018280546121cd9061319f565b801561221a5780601f106121ef5761010080835404028352916020019161221a565b820191906000526020600020905b8154815290600101906020018083116121fd57829003601f168201915b5050505050905090565b606061222f82611999565b61226e576040517f08c379a000000000000000000000000000000000000000000000000000000000815260040161226590613f78565b60405180910390fd5b6000612278612192565b9050600081511161229857604051806020016040528060008152506122c3565b806122a2846124a8565b6040516020016122b39291906138b0565b6040516020818303038152906040525b915050919050565b6000826122d88584612609565b1490509392505050565b505050565b505050565b61230682826040518060200160405280600081525061267e565b5050565b6001816000016000828254019250508190555050565b60006123418473ffffffffffffffffffffffffffffffffffffffff166126d9565b1561249b578373ffffffffffffffffffffffffffffffffffffffff1663150b7a0261236a611a05565b8786866040518563ffffffff1660e01b815260040161238c9493929190613fed565b6020604051808303816000875af19250505080156123c857506040513d601f19601f820116820180604052508101906123c5919061404e565b60015b61244b573d80600081146123f8576040519150601f19603f3d011682016040523d82523d6000602084013e6123fd565b606091505b50600081511415612443576040517f08c379a000000000000000000000000000000000000000000000000000000000815260040161243a90613ee6565b60405180910390fd5b805181602001fd5b63150b7a0260e01b7bffffffffffffffffffffffffffffffffffffffffffffffffffffffff1916817bffffffffffffffffffffffffffffffffffffffffffffffffffffffff1916149150506124a0565b600190505b949350505050565b606060008214156124f0576040518060400160405280600181526020017f30000000000000000000000000000000000000000000000000000000000000008152509050612604565b600082905060005b6000821461252257808061250b90613d2d565b915050600a8261251b91906140aa565b91506124f8565b60008167ffffffffffffffff81111561253e5761253d612ecc565b5b6040519080825280601f01601f1916602001820160405280156125705781602001600182028036833780820191505090505b5090505b600085146125fd576001826125899190613c11565b9150600a8561259891906140db565b60306125a49190613c45565b60f81b8183815181106125ba576125b961410c565b5b60200101907effffffffffffffffffffffffffffffffffffffffffffffffffffffffffffff1916908160001a905350600a856125f691906140aa565b9450612574565b8093505050505b919050565b60008082905060005b84518110156126735760008582815181106126305761262f61410c565b5b602002602001015190508083116126525761264b83826126fc565b925061265f565b61265c81846126fc565b92505b50808061266b90613d2d565b915050612612565b508091505092915050565b6126888383612713565b6126956000848484612320565b6126d4576040517f08c379a00000000000000000000000000000000000000000000000000000000081526004016126cb90613ee6565b60405180910390fd5b505050565b6000808273ffffffffffffffffffffffffffffffffffffffff163b119050919050565b600082600052816020526040600020905092915050565b600073ffffffffffffffffffffffffffffffffffffffff168273ffffffffffffffffffffffffffffffffffffffff161415612783576040517f08c379a000000000000000000000000000000000000000000000000000000000815260040161277a90614187565b60405180910390fd5b61278c81611999565b156127cc576040517f08c379a00000000000000000000000000000000000000000000000000000000081526004016127c3906141f3565b60405180910390fd5b6127d8600083836122e2565b6001600360008473ffffffffffffffffffffffffffffffffffffffff1673ffffffffffffffffffffffffffffffffffffffff16815260200190815260200160002060008282546128289190613c45565b92505081905550816002600083815260200190815260200160002060006101000a81548173ffffffffffffffffffffffffffffffffffffffff021916908373ffffffffffffffffffffffffffffffffffffffff160217905550808273ffffffffffffffffffffffffffffffffffffffff16600073ffffffffffffffffffffffffffffffffffffffff167fddf252ad1be2c89b69c2b068fc378daa952ba7f163c4a11628f55a4df523b3ef60405160405180910390a46128e9600083836122e7565b5050565b8280546128f99061319f565b90600052602060002090601f01602090048101928261291b5760008555612962565b82601f1061293457803560ff1916838001178555612962565b82800160010185558215612962579182015b82811115612961578235825591602001919060010190612946565b5b50905061296f9190612973565b5090565b5b8082111561298c576000816000905550600101612974565b5090565b6000604051905090565b600080fd5b600080fd5b60007fffffffff0000000000000000000000000000000000000000000000000000000082169050919050565b6129d9816129a4565b81146129e457600080fd5b50565b6000813590506129f6816129d0565b92915050565b600060208284031215612a1257612a1161299a565b5b6000612a20848285016129e7565b91505092915050565b60008115159050919050565b612a3e81612a29565b82525050565b6000602082019050612a596000830184612a35565b92915050565b600081519050919050565b600082825260208201905092915050565b60005b83811015612a99578082015181840152602081019050612a7e565b83811115612aa8576000848401525b50505050565b6000601f19601f8301169050919050565b6000612aca82612a5f565b612ad48185612a6a565b9350612ae4818560208601612a7b565b612aed81612aae565b840191505092915050565b60006020820190508181036000830152612b128184612abf565b905092915050565b6000819050919050565b612b2d81612b1a565b8114612b3857600080fd5b50565b600081359050612b4a81612b24565b92915050565b600060208284031215612b6657612b6561299a565b5b6000612b7484828501612b3b565b91505092915050565b600073ffffffffffffffffffffffffffffffffffffffff82169050919050565b6000612ba882612b7d565b9050919050565b612bb881612b9d565b82525050565b6000602082019050612bd36000830184612baf565b92915050565b612be281612b9d565b8114612bed57600080fd5b50565b600081359050612bff81612bd9565b92915050565b60008060408385031215612c1c57612c1b61299a565b5b6000612c2a85828601612bf0565b9250506020612c3b85828601612b3b565b9150509250929050565b600080600060608486031215612c5e57612c5d61299a565b5b6000612c6c86828701612bf0565b9350506020612c7d86828701612bf0565b9250506040612c8e86828701612b3b565b9150509250925092565b6000819050919050565b612cab81612c98565b82525050565b6000602082019050612cc66000830184612ca2565b92915050565b612cd581612a29565b8114612ce057600080fd5b50565b600081359050612cf281612ccc565b92915050565b600060208284031215612d0e57612d0d61299a565b5b6000612d1c84828501612ce3565b91505092915050565b612d2e81612b1a565b82525050565b6000602082019050612d496000830184612d25565b92915050565b600080fd5b600080fd5b600080fd5b60008083601f840112612d7457612d73612d4f565b5b8235905067ffffffffffffffff811115612d9157612d90612d54565b5b602083019150836001820283011115612dad57612dac612d59565b5b9250929050565b60008060208385031215612dcb57612dca61299a565b5b600083013567ffffffffffffffff811115612de957612de861299f565b5b612df585828601612d5e565b92509250509250929050565b600060208284031215612e1757612e1661299a565b5b6000612e2584828501612bf0565b91505092915050565b612e3781612c98565b8114612e4257600080fd5b50565b600081359050612e5481612e2e565b92915050565b600060208284031215612e7057612e6f61299a565b5b6000612e7e84828501612e45565b91505092915050565b60008060408385031215612e9e57612e9d61299a565b5b6000612eac85828601612bf0565b9250506020612ebd85828601612ce3565b9150509250929050565b600080fd5b7f4e487b7100000000000000000000000000000000000000000000000000000000600052604160045260246000fd5b612f0482612aae565b810181811067ffffffffffffffff82111715612f2357612f22612ecc565b5b80604052505050565b6000612f36612990565b9050612f428282612efb565b919050565b600067ffffffffffffffff821115612f6257612f61612ecc565b5b612f6b82612aae565b9050602081019050919050565b82818337600083830152505050565b6000612f9a612f9584612f47565b612f2c565b905082815260208101848484011115612fb657612fb5612ec7565b5b612fc1848285612f78565b509392505050565b600082601f830112612fde57612fdd612d4f565b5b8135612fee848260208601612f87565b91505092915050565b600080600080608085870312156130115761301061299a565b5b600061301f87828801612bf0565b945050602061303087828801612bf0565b935050604061304187828801612b3b565b925050606085013567ffffffffffffffff8111156130625761306161299f565b5b61306e87828801612fc9565b91505092959194509250565b60008083601f8401126130905761308f612d4f565b5b8235905067ffffffffffffffff8111156130ad576130ac612d54565b5b6020830191508360208202830111156130c9576130c8612d59565b5b9250929050565b6000806000604084860312156130e9576130e861299a565b5b60006130f786828701612b3b565b935050602084013567ffffffffffffffff8111156131185761311761299f565b5b6131248682870161307a565b92509250509250925092565b600080604083850312156131475761314661299a565b5b600061315585828601612bf0565b925050602061316685828601612bf0565b9150509250929050565b7f4e487b7100000000000000000000000000000000000000000000000000000000600052602260045260246000fd5b600060028204905060018216806131b757607f821691505b602082108114156131cb576131ca613170565b5b50919050565b7f4552433732313a20617070726f76656420717565727920666f72206e6f6e657860008201527f697374656e7420746f6b656e0000000000000000000000000000000000000000602082015250565b600061322d602c83612a6a565b9150613238826131d1565b604082019050919050565b6000602082019050818103600083015261325c81613220565b9050919050565b7f4552433732313a20617070726f76616c20746f2063757272656e74206f776e6560008201527f7200000000000000000000000000000000000000000000000000000000000000602082015250565b60006132bf602183612a6a565b91506132ca82613263565b604082019050919050565b600060208201905081810360008301526132ee816132b2565b9050919050565b7f4552433732313a20617070726f76652063616c6c6572206973206e6f74206f7760008201527f6e6572206e6f7220617070726f76656420666f7220616c6c0000000000000000602082015250565b6000613351603883612a6a565b915061335c826132f5565b604082019050919050565b6000602082019050818103600083015261338081613344565b9050919050565b7f4552433732313a207472616e736665722063616c6c6572206973206e6f74206f60008201527f776e6572206e6f7220617070726f766564000000000000000000000000000000602082015250565b60006133e3603183612a6a565b91506133ee82613387565b604082019050919050565b60006020820190508181036000830152613412816133d6565b9050919050565b7f546865206d696e74696e672064697361626c6564206e6f772e00000000000000600082015250565b600061344f601983612a6a565b915061345a82613419565b602082019050919050565b6000602082019050818103600083015261347e81613442565b9050919050565b7f4e487b7100000000000000000000000000000000000000000000000000000000600052601160045260246000fd5b60006134bf82612b1a565b91506134ca83612b1a565b9250817fffffffffffffffffffffffffffffffffffffffffffffffffffffffffffffffff048311821515161561350357613502613485565b5b828202905092915050565b7f546865206d6f6e6579206973206e6f7420656e6f75676820746f206d696e742060008201527f4e46542e00000000000000000000000000000000000000000000000000000000602082015250565b600061356a602483612a6a565b91506135758261350e565b604082019050919050565b600060208201905081810360008301526135998161355d565b9050919050565b7f4f776e61626c653a2063616c6c6572206973206e6f7420746865206f776e6572600082015250565b60006135d6602083612a6a565b91506135e1826135a0565b602082019050919050565b60006020820190508181036000830152613605816135c9565b9050919050565b600081905092915050565b50565b600061362760008361360c565b915061363282613617565b600082019050919050565b60006136488261361a565b9150819050919050565b7f4661696c656420746f2077697468647261772e00000000000000000000000000600082015250565b6000613688601383612a6a565b915061369382613652565b602082019050919050565b600060208201905081810360008301526136b78161367b565b9050919050565b7f4552433732313a206f776e657220717565727920666f72206e6f6e657869737460008201527f656e7420746f6b656e0000000000000000000000000000000000000000000000602082015250565b600061371a602983612a6a565b9150613725826136be565b604082019050919050565b600060208201905081810360008301526137498161370d565b9050919050565b7f4552433732313a2062616c616e636520717565727920666f7220746865207a6560008201527f726f206164647265737300000000000000000000000000000000000000000000602082015250565b60006137ac602a83612a6a565b91506137b782613750565b604082019050919050565b600060208201905081810360008301526137db8161379f565b9050919050565b7f45524337323155524953746f726167653a2055524920717565727920666f722060008201527f6e6f6e6578697374656e7420746f6b656e000000000000000000000000000000602082015250565b600061383e603183612a6a565b9150613849826137e2565b604082019050919050565b6000602082019050818103600083015261386d81613831565b9050919050565b600081905092915050565b600061388a82612a5f565b6138948185613874565b93506138a4818560208601612a7b565b80840191505092915050565b60006138bc828561387f565b91506138c8828461387f565b91508190509392505050565b60008160601b9050919050565b60006138ec826138d4565b9050919050565b60006138fe826138e1565b9050919050565b61391661391182612b9d565b6138f3565b82525050565b60006139288284613905565b60148201915081905092915050565b7f4164647265737320646f6573206e6f7420657869737420696e2077686974656c60008201527f6973742e00000000000000000000000000000000000000000000000000000000602082015250565b6000613993602483612a6a565b915061399e82613937565b604082019050919050565b600060208201905081810360008301526139c281613986565b9050919050565b7f4f776e61626c653a206e6577206f776e657220697320746865207a65726f206160008201527f6464726573730000000000000000000000000000000000000000000000000000602082015250565b6000613a25602683612a6a565b9150613a30826139c9565b604082019050919050565b60006020820190508181036000830152613a5481613a18565b9050919050565b7f4552433732313a206f70657261746f7220717565727920666f72206e6f6e657860008201527f697374656e7420746f6b656e0000000000000000000000000000000000000000602082015250565b6000613ab7602c83612a6a565b9150613ac282613a5b565b604082019050919050565b60006020820190508181036000830152613ae681613aaa565b9050919050565b7f4552433732313a207472616e736665722066726f6d20696e636f72726563742060008201527f6f776e6572000000000000000000000000000000000000000000000000000000602082015250565b6000613b49602583612a6a565b9150613b5482613aed565b604082019050919050565b60006020820190508181036000830152613b7881613b3c565b9050919050565b7f4552433732313a207472616e7366657220746f20746865207a65726f2061646460008201527f7265737300000000000000000000000000000000000000000000000000000000602082015250565b6000613bdb602483612a6a565b9150613be682613b7f565b604082019050919050565b60006020820190508181036000830152613c0a81613bce565b9050919050565b6000613c1c82612b1a565b9150613c2783612b1a565b925082821015613c3a57613c39613485565b5b828203905092915050565b6000613c5082612b1a565b9150613c5b83612b1a565b9250827fffffffffffffffffffffffffffffffffffffffffffffffffffffffffffffffff03821115613c9057613c8f613485565b5b828201905092915050565b7f546865206e756d626572206f66204e465473206d696e746564206973206c696d60008201527f6974656420627920746865206d6178206d696e742e0000000000000000000000602082015250565b6000613cf7603583612a6a565b9150613d0282613c9b565b604082019050919050565b60006020820190508181036000830152613d2681613cea565b9050919050565b6000613d3882612b1a565b91507fffffffffffffffffffffffffffffffffffffffffffffffffffffffffffffffff821415613d6b57613d6a613485565b5b600182019050919050565b7f546865206e756d626572206f66204e465473206d696e746564206973206c696d60008201527f697465642062792074686520746f74616c20737570706c792e00000000000000602082015250565b6000613dd2603983612a6a565b9150613ddd82613d76565b604082019050919050565b60006020820190508181036000830152613e0181613dc5565b9050919050565b7f4552433732313a20617070726f766520746f2063616c6c657200000000000000600082015250565b6000613e3e601983612a6a565b9150613e4982613e08565b602082019050919050565b60006020820190508181036000830152613e6d81613e31565b9050919050565b7f4552433732313a207472616e7366657220746f206e6f6e20455243373231526560008201527f63656976657220696d706c656d656e7465720000000000000000000000000000602082015250565b6000613ed0603283612a6a565b9150613edb82613e74565b604082019050919050565b60006020820190508181036000830152613eff81613ec3565b9050919050565b7f4552433732314d657461646174613a2055524920717565727920666f72206e6f60008201527f6e6578697374656e7420746f6b656e0000000000000000000000000000000000602082015250565b6000613f62602f83612a6a565b9150613f6d82613f06565b604082019050919050565b60006020820190508181036000830152613f9181613f55565b9050919050565b600081519050919050565b600082825260208201905092915050565b6000613fbf82613f98565b613fc98185613fa3565b9350613fd9818560208601612a7b565b613fe281612aae565b840191505092915050565b60006080820190506140026000830187612baf565b61400f6020830186612baf565b61401c6040830185612d25565b818103606083015261402e8184613fb4565b905095945050505050565b600081519050614048816129d0565b92915050565b6000602082840312156140645761406361299a565b5b600061407284828501614039565b91505092915050565b7f4e487b7100000000000000000000000000000000000000000000000000000000600052601260045260246000fd5b60006140b582612b1a565b91506140c083612b1a565b9250826140d0576140cf61407b565b5b828204905092915050565b60006140e682612b1a565b91506140f183612b1a565b9250826141015761410061407b565b5b828206905092915050565b7f4e487b7100000000000000000000000000000000000000000000000000000000600052603260045260246000fd5b7f4552433732313a206d696e7420746f20746865207a65726f2061646472657373600082015250565b6000614171602083612a6a565b915061417c8261413b565b602082019050919050565b600060208201905081810360008301526141a081614164565b9050919050565b7f4552433732313a20746f6b656e20616c7265616479206d696e74656400000000600082015250565b60006141dd601c83612a6a565b91506141e8826141a7565b602082019050919050565b6000602082019050818103600083015261420c816141d0565b905091905056fea2646970667358221220558a0d9b2ebc59cd9edeb129223dd74ad5fe0c61499eb10d5674228802da58f164736f6c634300080a0033",
  "immutableReferences": {},
  "source": "// SPDX-License-Identifier: MIT\npragma solidity >=0.4.22 <0.9.0;\n\nimport \"@openzeppelin/contracts/token/ERC721/extensions/ERC721URIStorage.sol\";\nimport \"@openzeppelin/contracts/token/ERC721/ERC721.sol\";\nimport \"@openzeppelin/contracts/access/Ownable.sol\";\nimport \"@openzeppelin/contracts/utils/Counters.sol\";\nimport \"@openzeppelin/contracts/utils/cryptography/MerkleProof.sol\";\n\ncontract BakiNFT is ERC721URIStorage, Ownable {\n  using Counters for Counters.Counter;\n\n  address _owner; // Address of owner of this contract\n  Counters.Counter private _tokenIdTracker; // The tracker to count of tokenId\n  uint256 public _whitelistPrice; // The price when whitelist mint\n  uint256 public _publicPrice; // The price when public mint\n  uint256 public _totalSupply; // The total supply of NFT in this contract\n  bool public _enabled; // The status of this contract\n  bytes32 public _merkleRoot; // The Merkleroot hash for check the whitelist\n  uint256 public _maxMint; // Maximum usable mint amount of NFTs\n  string public _baseTokenURI; // Base token URI\n\n  constructor(\n    string memory name, // Contract name\n    string memory symbol, // Contract symbol\n    uint256 totalSupply, // Contract totalSupply\n    uint256 whitelistPrice, // Contract whitelistPrice\n    uint256 publicPrice, // Contract publicPrice\n    bytes32 merkleRoot, // Contract merkleRoot\n    string memory baseURI, // Token base URI\n    uint256 maxMint // Maximum usable mint amount of NFTs\n  ) ERC721(name, symbol) {\n    _owner = msg.sender;\n    _totalSupply = totalSupply;\n    _whitelistPrice = whitelistPrice;\n    _publicPrice = publicPrice;\n    _merkleRoot = merkleRoot;\n    _baseTokenURI = baseURI;\n    _maxMint = maxMint;\n    _enabled = true;\n  }\n\n  // The modifier to check about that whitelist\n  modifier isWhitelist(bytes32[] calldata merkleProof, bytes32 root) {\n    require(\n      MerkleProof.verify(\n        merkleProof,\n        root,\n        keccak256(abi.encodePacked(msg.sender))\n      ),\n      \"Address does not exist in whitelist.\"\n    );\n    _;\n  }\n\n  // The modifier to check the status of smart contract\n  modifier isEnabled() {\n    require(_enabled, \"The minting disabled now.\");\n    _;\n  }\n\n  // The function to mint\n  function mint(uint256 amount) private {\n    require(balanceOf(msg.sender) + amount <= _maxMint, \"The number of NFTs minted is limited by the max mint.\");\n\n    uint256 i;\n    while(i < amount) {\n      i++;\n      // check total supply\n      require(_tokenIdTracker.current() < _totalSupply, \"The number of NFTs minted is limited by the total supply.\");\n      \n      // get token id\n      uint256 tokenId = _tokenIdTracker.current();\n\n      // mint for person that called function\n      _safeMint(msg.sender, tokenId);\n\n      // increments token id count\n      _tokenIdTracker.increment();\n    }\n  }\n\n  // The function to mint the NFT\n  function publicMint(uint256 amount) public payable isEnabled {\n    require(_publicPrice * amount == msg.value, \"The money is not enough to mint NFT.\");\n\n    mint(amount);\n  }\n\n  // The function to whitelist mint\n  function whitelistMint(\n    uint256 amount,\n    bytes32[] calldata merkleProof\n  ) public payable isWhitelist(merkleProof, _merkleRoot) isEnabled {\n    require(_whitelistPrice * amount == msg.value, \"The money is not enough to mint NFT.\");\n\n    mint(amount);\n  }\n\n  // The function to set the private price\n  function setWhitelistPrice(uint256 whitelistPrice) public onlyOwner {\n    _whitelistPrice = whitelistPrice;\n  }\n\n  // The function to set the private price\n  function setPublicPrice(uint256 publicPrice) public onlyOwner {\n    _publicPrice = publicPrice;\n  }\n\n  // The function to set the total supply\n  function setTotalSupply(uint256 totalSupply) public onlyOwner {\n    _totalSupply = totalSupply;\n  }\n\n  // The function to set the status of this contract\n  function setEnabled(bool status) public onlyOwner {\n    _enabled = status;\n  }\n\n  // The function to withdraw\n  function withdraw() public onlyOwner {\n    (bool success, ) = owner().call{value: address(this).balance}(\"\");\n    require(success, \"Failed to withdraw.\");\n  }\n\n  // The function to set the merkleRoot hash\n  function setMerkleRoot(bytes32 merkleRoot) public onlyOwner {\n    _merkleRoot = merkleRoot;\n  }\n\n  // The function to fetch current supply\n  function fetchCurrentSupply() public view returns (uint256) {\n    return _tokenIdTracker.current();\n  }\n\n  // The function to get token base uri\n  function _baseURI() internal view virtual override returns (string memory) {\n    return _baseTokenURI;\n  }\n\n  // The function to set token base uri\n  function setBaseURI(string calldata baseURI) public onlyOwner {\n    _baseTokenURI = baseURI;\n  }\n\n  // The function to set max mint\n  function setMaxMint(uint256 maxMint) public onlyOwner {\n    _maxMint = maxMint;\n  }\n}",
  "sourcePath": "/home/phoenix/Works/baki-nft/contracts/BakiNFT.sol",
  "compiler": {
    "name": "solc",
    "version": "0.8.10+commit.fc410830.Emscripten.clang"
  },
  "schemaVersion": "3.4.4",
  "updatedAt": "2022-06-14T16:21:31.217Z",
  "devdoc": {
    "kind": "dev",
    "methods": {
      "approve(address,uint256)": {
        "details": "See {IERC721-approve}."
      },
      "balanceOf(address)": {
        "details": "See {IERC721-balanceOf}."
      },
      "getApproved(uint256)": {
        "details": "See {IERC721-getApproved}."
      },
      "isApprovedForAll(address,address)": {
        "details": "See {IERC721-isApprovedForAll}."
      },
      "name()": {
        "details": "See {IERC721Metadata-name}."
      },
      "owner()": {
        "details": "Returns the address of the current owner."
      },
      "ownerOf(uint256)": {
        "details": "See {IERC721-ownerOf}."
      },
      "renounceOwnership()": {
        "details": "Leaves the contract without owner. It will not be possible to call `onlyOwner` functions anymore. Can only be called by the current owner. NOTE: Renouncing ownership will leave the contract without an owner, thereby removing any functionality that is only available to the owner."
      },
      "safeTransferFrom(address,address,uint256)": {
        "details": "See {IERC721-safeTransferFrom}."
      },
      "safeTransferFrom(address,address,uint256,bytes)": {
        "details": "See {IERC721-safeTransferFrom}."
      },
      "setApprovalForAll(address,bool)": {
        "details": "See {IERC721-setApprovalForAll}."
      },
      "supportsInterface(bytes4)": {
        "details": "See {IERC165-supportsInterface}."
      },
      "symbol()": {
        "details": "See {IERC721Metadata-symbol}."
      },
      "tokenURI(uint256)": {
        "details": "See {IERC721Metadata-tokenURI}."
      },
      "transferFrom(address,address,uint256)": {
        "details": "See {IERC721-transferFrom}."
      },
      "transferOwnership(address)": {
        "details": "Transfers ownership of the contract to a new account (`newOwner`). Can only be called by the current owner."
      }
    },
    "version": 1
  },
  "userdoc": {
    "kind": "user",
    "methods": {},
    "version": 1
  }
}